S02B000061746D656761343830385F78706C61696E65645F70726F5F73657269616C5F6272696467652E73726F
S11300000C94D7000C94F4000C94F4000C947F0727
S11300100C94F4000C94F4000C94F4000C94F4008C
S11300200C94F4000C94F4000C94F4000C94F4007C
S11300300C94F4000C94F4000C94F4000C947C06DE
S11300400C94F4000C94F4000C94F4000C94F4005C
S11300500C94F4000C94F4000C94F4000C94F4004C
S11300600C94F4000C94F4000C94F4000C94F4003C
S11300700C94F4000C94DA080C94F4000C94250805
S11300800C944C080C94F4000C94F4000C94F400BC
S1130090C60DC60DD40DB30DBD0DBD0DCD0DCD0DCD
S11300A0E20DAF0DFB0DFB0DFB0DFB0DC00D0009AB
S11300B0121B242D363F48415A536C657E77191024
S11300C00B023D342F265158434A757C676E323BF0
S11300D02029161F040D7A7368615E574C452B2244
S11300E039300F061D14636A7178474E555C646D90
S11300F0767F4049525B2C253E3708011A137D74E4
S11301006F6659504B42353C272E1118030A565F2F
S1130110444D727B60691E170C053A3328214F4603
S11301205D546B627970070E151C232A31384148DF
S1130130535A656C777E09001B122D243F365851A3
S11301404A437C756E671019020B343D262F737A6F
S11301506168575E454C3B3229201F160D046A63C3
S113016078714E475C55222B3039060F141D252C0F
S1130170373E0108131A6D647F7649405B523C3563
S11301802E2718110A03747D666F5059424B171EAF
S1130190050C333A21285F564D447B7269600E0783
S11301A01C152A233831464F545D626B7079112433
S11301B01FBECFEFCDBFDFE3DEBF18E2A0E0B8E2A1
S11301C0EBE4F7E202C005900D92A234B107D9F72F
S11301D02AE2A2E4B8E201C01D92AD3EB207E1F703
S11301E00E94C5020C948C130C9400008091410869
S11301F0847419F08091400808950C94CF070F93EC
S11302001F93CF93DF93EC018C01060F111DC017D0
S1130210D10731F00E947A080E9481088993F7CFB0
S1130220DF91CF911F910F9108950F931F93CF9357
S1130230DF93EC018C01060F111DC017D10721F0CB
S113024089910E949A08F9CFDF91CF911F910F9164
S1130250089580916B28882351F060916C288091D7
S1130260692890916A280E94FF0010926B2880915F
S11302706428882331F08091652880936628109241
S11302806428089581E080937C2884E498E2809334
S113029067289093682880916428882331F080919E
S11302A0652880936628109264280895CF93DF937D
S11302B01F92CDB7DEB790916628923009F489C0B9
S11302C030F4992359F0913009F451C057C1933057
S11302D009F4AEC0943009F425C150C1811136C06F
S11302E080916C28813091F5E0916728F09168281D
S11302F09081923179F4809366289FEF90938E2AAF
S11303002EE83AE22093692830936A2880936B2878
S11303108BE52BC02EE83AE22093692830936A28B3
S113032080936C2880936B28998361E0CE010196B9
S11303300E9415010E942901E0916928F0916A2820
S11303408081809344280E9442011BC18FEF8093D7
S11303508E2A8EE89AE28093692890936A2881E035
S113036080936C2880936B288AEE8983DECF811179
S113037008C1E0916728F09168288081853A71F47A
S113038082E0809366288FEF8093922A90936C2862
S113039061E080E99AE20E94FF00F3C0823111F427
S11303A08BE505C080916328811110C08AE589839B
S11303B08FEF80938E2A2EE83AE2209369283093B7
S11303C06A2890936C2890936B28AFCF90936C28F5
S11303D0D8C081111DC083E0809366288091902A43
S11303E080934528809144288093462885E498E2A8
S11303F08093792890937A288AE080936C286AE025
S113040087E498E20E94FF009ECF823009F0B9C0D1
S113041081E0809366282EE83AE22093692830939D
S11304206A2880936B2880936C288AEE8983A0C005
S11304308111EBCFE0917928F0917A28DF019F01B7
S1130440245F3F4F9D918927A217B307D9F78823CB
S1130450E9F081E0809366289FEF90938E2A2EE83E
S11304603AE22093692830936A2880936C28809319
S11304706B288AE5898361E0CE0101960E9415010B
S11304806CE08091792890917A2852CF8CE0ADE687
S1130490B8E201900D928A95E1F780916D289091D0
S11304A06E28A0916F28B0917028AC01BD0155272A
S11304B0662777274330510561057105B9F424E0B7
S11304C020936628CD01AA27BB27809342289093C6
S11304D0432821E020936B282EE838E220936928F2
S11304E030936A2880936C288CEA3FCF41305105C1
S11304F06105710529F481E080937D2885E03FC082
S113050081E080937D288093642885E0809365282A
S11305108CEA898361E0CE0101960E9415010E9454
S113052029012FC081110BC080916C2890E020918B
S11305304228309143288217930741F4DCCF82305C
S113054029F481E0809366289AEE04C081E08093C8
S113055066289AE599839FEF90938E2A80936C285E
S11305602EE83AE22093692830936A2880936B2816
S113057061E0CE0101960E94150103C081E08093E1
S113058066280F90DF91CF910895CF92DF92EF927A
S1130590FF920F931F93CF93DF931F92CDB7DEB7D4
S11305A00E94A40461E086EF90E00E941608809106
S11305B040088091440887FDFACF809145088068FF
S11305C08093450881E080936C280E942901E09182
S11305D06928F0916A288081809344280E9442010E
S11305E00E9429090E949D09811113C13EE8C32E6E
S11305F03AE2D32EFF24F3944CEAE42E0E947A08C4
S1130600882371F080917C2881110AC080917B2815
S1130610811106C00E948108809344280E944201EF
S113062080917C28882329F010927C2880E00E9405
S1130630560180917B28882329F010927B2882E040
S11306400E94560180917D288823C1F280916628FA
S11306508530A1F600916D2810916E2820916F28A5
S113066030917028D901C8019927AA27BB27823065
S11306709105A105B10509F44DC0E0F40097A10569
S1130680B10541F10197A105B10509F0BFC0209161
S11306907528309176284091772850917828609178
S11306A071287091722880917328909174280E9407
S11306B09F0B66C083309105A105B10509F451C0B3
S11306C00597A105B10509F0A1C0F0926628F09242
S11306D0632870C06091712870917228809173288A
S11306E0909174280E949B0BC0926928D0926A282A
S11306F0F0926C28F0926B28F092662890937E28F2
S11307006093812880937F287093802864E08EE72B
S113071098E244C08901222733276091712870919F
S1130720722880917328909174284EE858E20E94B0
S1130730A10BC0926928D0926A28F0926C28F0929A
S11307406B28F092662880916D2890916E28A09174
S11307506F28B0917028BD01882799278EE898E208
S11307601DC0890122273327609171287091722856
S113077080917328909174284EE858E20E941E0CD0
S1130780C0926928D0926A28F0926C28F0926B2863
S1130790E982F092662861E0CE0101960E9415017B
S11307A00E942901E0916928F0916A288081809350
S11307B044282AC00E9473088823E1F360917528B5
S11307C07091762880917728909178280E945B1206
S11307D020E030E040E851E40E94E9129B01AC01C2
S11307E060E876E988E19EE40E94BA1120E030E0F6
S11307F040E05FE30E944E110E942C12609348086F
S113080070934908109244280E94420110927D2856
S1130810F5CE8CE197E60E945C1380E090E00F90A7
S1130820DF91CF911F910F91FF90EF90DF90CF90C8
S11308300895E0E0F6E083E1828385E0868381E049
S1130840808380E0089580E0089541E068ED81E6CA
S113085090E00E94A00680E00895789480E00895D6
S1130860E0E1F4E0808188608193E83184E0F80776
S1130870C9F7E0E3F4E0808188608193E83384E0A1
S1130880F807C9F7E0E5F4E0808188608193E835F2
S113089084E0F807C9F7E0E7F4E080818860819399
S11308A0E83784E0F807C9F7E0E9F4E0808188607C
S11308B08193E83984E0F807C9F7E0EBF4E080813C
S11308C088608193E83B84E0F807C9F70895E5E779
S11308D0F4E08081887F846080838081877F808347
S11308E00C941904A198E1EBF4E08081877F808364
S11308F0A09AA89A0C94BE080598E5E1F4E08081DA
S1130900877F8083049A0C98069A0E980C94A70605
S1130910039A0B98E3E1F4E08081877F80838081F0
S11309208F7780838081887F8083029A0A98E2E1AE
S1130930F4E08081877F808380818F7780838081CA
S1130940887F80830C9474060E943004019A09986D
S1130950079A0F9A609A689A619A699A629A6A9A4F
S1130960639A6B9AA298AA98E2EBF4E0808188607B
S1130970808380818F7780838081887F8360808378
S1130980A39AAB98A49AAC98A598E5EBF4E080817F
S113099088608083A698E6EBF4E080818860808399
S11309A00E9425040E94C5060E9467040E947204E6
S11309B00E947C040E942D040E94A5060E948804C3
S11309C00C942304E0EAF8E08481886084838581C0
S11309D081608583E6E9FAE280818E7F80831386D5
S11309E08EE00895E6E9FAE280818E7F80831386A3
S11309F080E00895E0EAF8E0848183608483E6E996
S1130A00FAE280818E7F8083138680E00895E6E990
S1130A10FAE28081886080838181880F816080937D
S1130A20A70884E008950C940705E6E9FAE28081BA
S1130A30886080838181880F8093A70883E008956C
S1130A400C9415058091962A877F8093962A82E0DC
S1130A508093A12AE091A62AF091A72A8091B22A34
S1130A609091B32A0995823021F0833021F40C94BB
S1130A7015050C9407050C94FA04E0EAF8E0848167
S1130A808B7F848384E00895E0EAF8E084818B7F9F
S1130A90848383E00895E0EAF8E0848184608483B9
S1130AA0848183608483E6E9FAE280818E7F808397
S1130AB0138680E00895E0EAF8E08481846084830A
S1130AC088E008958091A50888608093A50882E055
S1130AD08093A12AE091A42AF091A52A8091B02ABA
S1130AE09091B12A0995823021F0833021F40C943D
S1130AF015050C9407050C94E204E0EAF8E08481FF
S1130B0088608483858181608583E6E9FAE2808157
S1130B108E7F808382E083878EE008958091A5088C
S1130B20806C8093A5088091962A83FF07C08091EA
S1130B30A50884FF03C08FE08093A02A8091A508B4
S1130B4083FF03C080E18093A02A8091A50882FFDF
S1130B5003C081E18093A02AE091A02AF0E0EE0F87
S1130B60FF1FE050F84D0190F081E02D099580932E
S1130B70A02A08958091A50884FF13C0E091A82AB3
S1130B80F091A92A8091B42A9091B52A09958230CE
S1130B9021F0833021F40C9415050C9407050C9472
S1130BA0FA048091962A877F8093962AE091982A66
S1130BB0F091992ACF0101968093982A9093992ACB
S1130BC080818093A80880919A2A90919B2A01970A
S1130BD080939A2A90939B2A892B11F485E0089597
S1130BE083E008958091962A877F8093962A809146
S1130BF09A2A90919B2A2091A4088130910511F49E
S1130C00246001C02B7F2093A408019780939A2A23
S1130C1090939B2AE091982AF091992A892B09F5BF
S1130C208091A80880838091982A9091992A0196AE
S1130C308093982A9093992A8091962A846080932D
S1130C40962AE091A22AF091A32A8091AE2A90914B
S1130C50AF2A09958250823010F40C945B050C94F1
S1130C604B058091A80880838091982A9091992AB5
S1130C7001968093982A9093992A8091A40882607F
S1130C808093A40884E008958091A50884FF0EC091
S1130C90E091A82AF091A92A8091B42A9091B52ACA
S1130CA009958230B9F08330B9F01AC08091962A40
S1130CB084608093962AE091A22AF091A32A8091DD
S1130CC0AE2A9091AF2A0995833031F0843031F007
S1130CD0823031F40C9407050C9415050C94BA0574
S1130CE00C94FA040C940705E0EAF8E08DE286839C
S1130CF081EC8383158208951F920F920FB60F9291
S1130D0011242F933F934F935F936F937F938F930C
S1130D109F93AF93BF93EF93FF930E948E05FF9130
S1130D20EF91BF91AF919F918F917F916F915F915F
S1130D304F913F912F910F900FBE0F901F901895D8
S1130D401BBEFC0164BF4083089580E0089583E3E3
S1130D508093C0081092BA2A0895E0ECF8E08081EC
S1130D608160808308959091BA2A923009F4FFCF6C
S1130D708093C4088091C30887FFFCCF8091C40886
S1130D80089560E070E0CB010895809141018111E4
S1130D90FCCF81E08093400180934701809342011E
S1130DA00895E0E4F1E082818E7F82831092C02A6C
S1130DB01092C12A1092C22A1092C32A1092BB2AFE
S1130DC00895CF92DF92EF92FF920F931F930FEF4C
S1130DD01FEF20E030E068017901C61AD70AE80A5B
S1130DE0F90AC092BC2AD092BD2AE092BE2AF0929F
S1130DF0BF2A8091BC2A9091BD2AA091BE2AB091AD
S1130E00BF2A80934801909349018091410181FD5B
S1130E10FCCF1F910F91FF90EF90DF90CF9008953A
S1130E200F931F93809142018E7F80934201E09142
S1130E30C62AF091C72A309721F41F910F910C9480
S1130E40D1060091C02A1091C12A2091C22A309162
S1130E50C32A86819781A085B185BC01CD01601B21
S1130E60710B820B930B6115710521E082079105CB
S1130E7008F18091C02A9091C12AA091C22AB09110
S1130E80C32A0197AF4FBF4F80932A2890932B28F2
S1130E90A0932C28B0932D28E0932828F093292898
S1130EA084E298E28093C62A9093C72A6FEF7FEF7B
S1130EB080E090E00E94E10680914201816080938D
S1130EC0420181E08093BB2A1F910F910895FC0198
S1130ED014821582E091C42AF091C52A309729F42E
S1130EE08093C42A9093C52A0895248135812115BD
S1130EF0310511F0F901F9CF8483958308951F9288
S1130F000F920FB60F9211242F933F934F935F9339
S1130F106F937F938F939F93AF93BF93CF93DF93FD
S1130F20EF93FF938091C62A9091C72AFC01C48154
S1130F30D58146815781608571854093C02A50933D
S1130F40C12A6093C22A7093C32A1092BC2A1092B9
S1130F50BD2A1092BE2A1092BF2AF8E284329F075B
S1130F6011F00E946707C093C62AD093C72A0E9433
S1130F70100781E080934301FF91EF91DF91CF91BE
S1130F80BF91AF919F918F917F916F915F914F919D
S1130F903F912F910F900FBE0F901F901895809145
S1130FA04008E091D72AEF5FE770E093D72A909149
S1130FB0D62AF0E0E852F54D80838091D52A8F5FE0
S1130FC08093D52A08958091CA2A882329F1E09133
S1130FD0CB2AEF5FE770E093CB2A1092C82A1092D5
S1130FE0C92A8091C82A9091C92A0A9754F48091F9
S1130FF0C82A9091C92A01968093C82A9093C92A35
S1131000F0CFF0E0E353F54D808180934208809166
S1131010CA2A81508093CA2A8091CA2A811105C0A4
S1131020809145088F7D809345080895613019F0BB
S1131030623031F0089580933028909331280895D8
S113104080932E2890932F2808951F920F920FB605
S11310500F9211242F933F934F935F936F937F933A
S11310608F939F93AF93BF93EF93FF93E0913028B7
S1131070F09131280995FF91EF91BF91AF919F9124
S11310808F917F916F915F914F913F912F910F902D
S11310900FBE0F901F9018951F920F920FB60F92CC
S11310A011242F933F934F935F936F937F938F9369
S11310B09F93AF93BF93EF93FF93E0912E28F0910A
S11310C02F280995FF91EF91BF91AF919F918F9137
S11310D07F916F915F914F913F912F910F900FBE30
S11310E00F901F9018959091CA2A81E0983009F4C6
S11310F080E008959091D52A81E0911101C080E0AB
S113110008958091D52A8823E1F3E091D62AEF5FF0
S1131110E770E093D62A0FB6F8940F928091D52AFF
S113112081508093D52A0F900FBEF0E0E852F54D20
S1131130808108959091CC2A9F5F97702091CA2A4C
S11311402830E1F3E92FF0E0E353F54D80839093E9
S1131150CC2A0FB6F8940F928091CA2A8F5F80939D
S1131160CA2A0F900FBE809145088062809345087B
S113117008950E949A0880E090E00895E0E4F8E081
S11311808BE591E08087918780EC86831092D62A44
S11311901092D72A1092D52A1092CB2A1092CC2AD8
S11311A01092CA2A82E398E28093E92A9093EA2A69
S11311B080E008951F920F920FB60F9211242F937F
S11311C03F934F935F936F937F938F939F93AF93CB
S11311D0BF93EF93FF93B29907C0E091E02AF09197
S11311E0E12A309709F0099584E087BBFF91EF91DC
S11311F0BF91AF919F918F917F916F915F914F912B
S11312003F912F910F900FBE0F901F90189561156D
S113121071058105910559F0E3ECF9E03197F1F797
S113122000C000006150710981099109F0CF08954F
S1131230AB98099861E070E080E090E00E940709B3
S1131240AB9A6AE070E080E090E00E940709099A96
S113125008951092E02A1092E12A019AA39AA49A7E
S11312600E941809789480E00895079A0F9A049AC6
S11312700C9A0598069A0E980E94A7060E94AD063D
S11312800E94180961E070E080E090E00E94070984
S113129080E00895AF92BF92CF92DF92EF92FF92D7
S11312A00F931F93CF93DF931F92CDB7DEB7FB014C
S11312B08330B1F5C480D580E280F3800081118150
S11312C019820115110549F0EF2841F5BB24B394A7
S11312D0A12CCE0101967C0106C0B12CAA24A394B2
S11312E08E010F5F1F4F0F98C114D104A1F0F801B4
S11312F0808190E00E94B306F7018083F1E0CF1A69
S1131300D108B11003C08FEFE81AF80AA110ECCF8E
S11313100F5F1F4FE9CF0F9A80E003C08AEF01C02F
S11313208FEF0F90DF91CF911F910F91FF90EF906E
S1131330DF90CF90BF90AF900895CF930E949B0C05
S1131340C82F811102C00E94A8098C2FCF91089543
S1131350CF93DF9300D000D0CDB7DEB719821A82C5
S11313601B821C82AE014F5F5F4F68E074E180E036
S113137090E00E949D0B81112FC089819A81AB81DD
S1131380BC819C01AD01316029833A834B835C832A
S113139068E074E180E090E00E949F0B81111CC022
S11313A0AE014F5F5F4F60E07AE180E090E00E9421
S11313B09D0B811111C089819A81AB81BC819C01F3
S11313C0AD01416029833A834B835C8360E07AE119
S11313D080E090E00E949F0B2496CDBFDEBFDF919A
S11313E0CF910895CF92DF92EF92FF92CF93DF9344
S11313F000D000D0CDB7DEB7C090E22AD090E32A67
S1131400E090E42AF090E52AC114D104E104F10447
S113141009F081C042EE5AE260E070E180E090E0C1
S11314200E949D0B882349F01092E22A1092E32A2D
S11314301092E42A1092E52A76C0AE014F5F5F4F06
S113144064EF73E180E090E00E949D0B8111ECCF8A
S11314508091E22A9091E32AA091E42AB091E52AAE
S1131460803A22E0920720E1A207B10569F489815C
S11314709A81AB81BC810197A105B105D1F181EAC3
S113148092E0A0E1B0E018C0803B22E0920720E1A6
S1131490A207B105F9F489819A81AB81BC818330BB
S11314A09105A105B10529F10497A105B10569F4D8
S11314B081EB92E0A0E1B0E08093E22A9093E32AEA
S11314C0A093E42AB093E52A14C082EB92E0A0E151
S11314D0B0E0F2CF803F9105A041B10551F442EE56
S11314E05AE260E070E08BE390E00E949D0B811172
S11314F09BCF8091E22A9091E32AA091E42AB091B3
S1131500E52AA07FA5608093E22A9093E32AA09322
S1131510E42AB093E52AC090E22AD090E32AE0902E
S1131520E42AF090E52AC701B6012496CDBFDEBFB8
S1131530DF91CF91FF90EF90DF90CF900895EF92DD
S1131540FF921F93CF93DF93CDB7DEB72897CDBF1C
S1131550DEBF1D821E821F82188619821A821B8298
S11315601C82AE014B5F5F4F6BE070E080E090E067
S11315700E949D0B182F811156C08D819E81AF81D1
S1131580B88580FF0DC0AE014B5F5F4F61E070E036
S113159080E090E00E949D0B182F882371F043C0D7
S11315A09C01AD0121606BE070E080E090E00E945E
S11315B09F0B182F882339F336C08D819E81AF810C
S11315C0B88581FF03C0E12CF12C0DC09C01AD0155
S11315D0226061E070E080E090E00E949F0B182F91
S11315E0882389F320C0AE014F5F5F4F6FE070E046
S11315F080E090E00E949D0B182F811114C0898116
S113160082FD0FC062E070E080E090E00E94070974
S11316108FEFE81AF80A85E0E816F10421F71CEFC9
S113162002C00E94990B812F2896CDBFDEBFDF91A7
S1131630CF911F91FF90EF9008950F931F93CF9335
S1131640DF9300D000D0CDB7DEB719821A821B8297
S11316501C82AE014F5F5F4F68E171E180E090E072
S11316600E949D0B182F89819A81AB81BC819C01BA
S1131670AD01216029833A834B835C8368E171E186
S113168080E090E00E949F0B180FAE014F5F5F4F08
S113169060E074E180E090E00E949D0B180F898166
S11316A09A81AB81BC8192FD02C0812F19C09C013B
S11316B0AD013B7F29833A834B835C8360E074E113
S11316C080E090E00E949F0B082FAE014F5F5F4FB8
S11316D060E074E180E090E00E949D0B800F810F38
S11316E02496CDBFDEBFDF91CF911F910F91089556
S11316F0CF9320E030E0A90160E074E180E090E065
S11317000E949F0BC82F62E370E080E090E00E948B
S113171007098C2FCF9108950E949F0A811106C05A
S11317200E94780B811102C00C941D0B08950C9437
S113173035090C943F0F0C945F0F0C94740F0C94A8
S11317407C0F2F923F924F925F926F927F928F9273
S11317509F92AF92BF92CF92DF92EF92FF920F933C
S11317601F93CF93DF93CDB7DEB72697CDBFDEBFF0
S113177069837A838B839C834D835E8348015901FB
S1131780209040283090412888E0281A31088A01A6
S1131790C12CD12C76012101612C712C69817A81B3
S11317A08B819C816C0D7D1D8E1D9F1D48145904D9
S11317B06A047B04E0F04D815E814C0D5D1D940153
S11317C02696CDBFDEBFDF91CF911F910F91FF9081
S11317D0EF90DF90CF90BF90AF909F908F907F90CD
S11317E06F905F904F903F902F900C94ED0F91016C
S11317F0A8010E94ED0F020D131D811109C0841868
S11318009508A608B708C40CD51CE61CF71CC6CF5F
S11318102696CDBFDEBFDF91CF911F910F91FF9030
S1131820EF90DF90CF90BF90AF909F908F907F907C
S11318306F905F904F903F902F9008952F923F921A
S11318404F925F926F927F928F929F92AF92BF92CC
S1131850CF92DF92EF92FF920F931F93CF93DF9378
S1131860CDB7DEB72697CDBFDEBF69837A838B837E
S11318709C834D835E834801590120904028309019
S1131880412888E0281A31088A01C12CD12C76011C
S11318902101612C712C69817A818B819C816C0D71
S11318A07D1D8E1D9F1D481459046A047B04E0F0BD
S11318B04D815E814C0D5D1D94012696CDBFDEBF2A
S11318C0DF91CF911F910F91FF90EF90DF90CF9018
S11318D0BF90AF909F908F907F906F905F904F904C
S11318E03F902F900C947C109101A8010E947C10D1
S11318F0020D131D811109C084189508A608B708A4
S1131900C40CD51CE61CF71CC6CF2696CDBFDEBF83
S1131910DF91CF911F910F91FF90EF90DF90CF90C7
S1131920BF90AF909F908F907F906F905F904F90FB
S11319303F902F900895CF9380E090E00E94970B02
S1131940C82F811118C00E94F209DC01CB0188273D
S11319509927A07F0097A043B10511F00E948C0B3A
S11319600E94840F20E030E0A90160E073E082E08F
S113197090E00E949F0B8C2FCF910895CF93DF931B
S1131980CDB7DEB72697CDBFDEBF89839A831B828E
S11319901C826D837E83BE016F5F7F4F83E00E9454
S11319A04A092696CDBFDEBFDF91CF910895CF932C
S11319B0DF93CDB7DEB72697CDBFDEBF19821A827B
S11319C08B839C836D837E83BE016F5F7F4F83E037
S11319D00E944A092696CDBFDEBFDF91CF910895BC
S11319E00F931F93CF93DF931F92CDB7DEB7082FCA
S11319F08F3C31F08BE3800F823010F01BE00FC07E
S1131A0061E070E0CE0101960E94D70C8823B1F307
S1131A1080E01DC08981081759F0115049F061E038
S1131A2070E0CE0101960E94D70C882399F3F0CF81
S1131A301BE061E070E0CE0101960E94D70C811199
S1131A40E7CF8981882311F0115099F781E00F9035
S1131A50DF91CF911F910F9108957F928F929F9262
S1131A60AF92BF92CF92DF92EF92FF920F931F93A8
S1131A70CF93DF9300D01F92CDB7DEB74C018B011B
S1131A80742EA12CB12C013080E2180710F46801E7
S1131A9003C0C12C90E2D92E8AE0E82EF12C61E03B
S1131AA070E0CE0103960E94D70C882311F080E0E9
S1131AB02AC08B8182958F708F3029F081E0E81ADB
S1131AC0F10868F7F4CFEF2891F3B601C4018A0D49
S1131AD09B1D0E94D70C8111EACF772039F0AC0C02
S1131AE0BD1C0C191D0979F681E00DC08091E62A10
S1131AF08111F5CF62E070E0CE0101960E94D70C0F
S1131B00882369F3D4CF2396CDBFDEBFDF91CF9175
S1131B101F910F91FF90EF90DF90CF90BF90AF9007
S1131B209F908F907F900895AF92CF92DF92EF9223
S1131B30FF920F931F93CF93DF93CDB7DEB729970F
S1131B40CDBFDEBF898390E0FC01E15CF109EF3099
S1131B50F10508F050C0E85BFF4F0C9456136A83FC
S1131B605B834C8311C0BB27A72F962F852FA11011
S1131B7080688A834B831C8207C01A821B82FBCF36
S1131B808FEF8A838B838C8365E037C06A835B83A2
S1131B904C83DD82CE8267E030C06A835B834C83F2
S1131BA0ED82DE82CF820CC0BB27A72F962F852F14
S1131BB0A11080688A834B833C832D831E830F830B
S1131BC068E01BC06A835B834C833D832E831F8341
S1131BD0088769E012C0A1E0B0E0AC0FBD1FA80FF8
S1131BE0B91FEE0FEC9370E0CE0101960E94BE0C7B
S1131BF091E0882309F190E01FC08091E62A8111C9
S1131C0019C0862F90E001978C01092E000C220B3D
S1131C10330BDE011196EFE7015011092109310957
S1131C20D0F24D91F0E0EE0FFF1FE427E255FF4F95
S1131C30E491F2CF6150D7CF892F2996CDBFDEBF73
S1131C40DF91CF911F910F91FF90EF90DF90CF9094
S1131C50AF9008954F925F926F927F929F92AF924E
S1131C60BF92CF92DF92EF92FF920F931F93CF9385
S1131C70DF93CDB7DEB72697CDBFDEBF2B013C0186
S1131C8029833A834B835C8381E3481651046104BE
S1131C90710418F423ECB22E02C099ECB92E81E33E
S1131CA0481651046104710418F49924939401C0F2
S1131CB0912C8AE08E83A92C84E0C82ED12CE12CAF
S1131CC0F12C09811A812B813C81B301A2018B2D56
S1131CD00E94940D8D83813031F48B2D0E94F00C81
S1131CE08D83813009F161E070E080E090E00E9432
S1131CF00709A12CC12CD12C760100E010E0980139
S1131D0040E050E0BA018FEC0E94940D8FEC0E94E9
S1131D10F00C61E070E080E090E00E9407098E81A1
S1131D2081508E838111C7CF8D812696CDBFDEBFB2
S1131D30DF91CF911F910F91FF90EF90DF90CF90A3
S1131D40BF90AF909F907F906F905F904F90089559
S1131D502F923F924F925F926F927F928F929F92B7
S1131D60AF92BF92CF92DF92EF92FF920F931F93A5
S1131D70CF93DF93CDB7DEB72597CDBFDEBF1B0171
S1131D802C013A018FEF281631044104510409F063
S1131D9018F4E4ECED8302C0FAECFD838FEF28160F
S1131DA031044104510409F018F48824839401C0D7
S1131DB0812C9AE0992EA82C84E0C82ED12CE12CF9
S1131DC0F12C00E010E09801B201A1018D810E9484
S1131DD0940DB82EE1E08E131CC08D810E94F00C8E
S1131DE0B82EF1E08F1315C0482D64E070E0CE01E9
S1131DF001960E942D0DB82E81E0B8120AC0898187
S1131E009A81AB81BC81F30180839183A283B383E4
S1131E101FC061E070E080E090E00E940709A12CFF
S1131E20C12CD12C760100E010E0980140E050E094
S1131E30BA018FEC0E94940D8FEC0E94F00C61E0CB
S1131E4070E080E090E00E9407099A949110B3CF6B
S1131E508B2D2596CDBFDEBFDF91CF911F910F91C2
S1131E60FF90EF90DF90CF90BF90AF909F908F90B6
S1131E707F906F905F904F903F902F900895AF9216
S1131E80CF92DF92EF92FF920F931F93A12CC12C5C
S1131E90D12C760100E010E0980140E050E0BA0156
S1131EA08FEC0E94940D8FEC0E94F00C80E01F9147
S1131EB00F91FF90EF90DF90CF90AF900895CF9364
S1131EC0DF9300D000D0CDB7DEB7AE014F5F5F4FD8
S1131ED00E94A80E69817A818B819C812496CDBF52
S1131EE0DEBFDF91CF9108950E94A80E813011F0DA
S1131EF08AEF089580E008950E942A0E813011F03F
S1131F008AEF089580E00895CF93DF93CDB7DEB7CD
S1131F102897CDBFDEBF19821A821B821C821092C1
S1131F20E62AAE014F5F5F4F64E278EE80E090E016
S1131F300E94A80E882329F08091E62A882381F044
S1131F4026C081E08093E62AAE014F5F5F4F64E2D2
S1131F5078EE80E090E00E94A80E8111EDCF34C0AD
S1131F6089819A81AB81BC8183789C01AD01206514
S1131F7029833A834B835C8364E278EE80E090E0CB
S1131F800E942A0E882301F181E08093E62AAE01A3
S1131F904B5F5F4F60E070E180E090E00E94A80E2C
S1131FA08823A1F064E278EE80E090E00E945F0F65
S1131FB0DC01CB018F789C01AD01206564E278EEF1
S1131FC080E090E00E947C0F80E001C08AEF2896B8
S1131FD0CDBFDEBFDF91CF9108952F923F924F92F4
S1131FE05F926F927F928F929F92AF92BF92CF92A5
S1131FF0DF92EF92FF920F931F93CF93DF9300D062
S113200000D0CDB7DEB71B012C013A0149018AE0AB
S11320108B831C82E1E08E16910429F4F1E0FC83A9
S113202082E0882E912C6401E12CF12CA12C00E09B
S113203010E09801B201A10188EC0E94940DB82E21
S113204081E0B8121CC088EC0E94F00CB82EE1E0CC
S11320508E1315C0FC8140E0B401FF2349F0CE018A
S113206001960E942D0DB82E8981F301808304C04E
S1132070C3010E942D0DB82EF1E0BF1631F161E0CD
S113208070E080E090E00E940709A12CC12CD12CC3
S1132090760100E010E0980140E050E0BA018FECD6
S11320A00E94940D8FEC0E94F00C61E070E080E0DF
S11320B090E00E9407098B8181508B838111AACF04
S11320C0E1E0BE1611F08AEF01C080E02496CDBF96
S11320D0DEBFDF91CF911F910F91FF90EF90DF90C2
S11320E0CF90BF90AF909F908F907F906F905F90B4
S11320F04F903F902F9008952F923F924F925F926E
S11321006F927F928F929F92AF92BF92CF92DF9203
S1132110EF92FF920F931F93CF93DF9300D000D0E1
S1132120CDB7DEB72B013C011A0149012AE0B22EDA
S113213081E08816910419F492E0892E912C6401AF
S1132140E12CF12CA12C00E010E09801B301A201D4
S113215087EC0E94940D813009F069C087EC0E94DD
S1132160F00C813009F063C019821A828401E12CD9
S1132170F12C6801013080E2180718F0C12C80E2CC
S1132180D82EE114F10429F4013080E2180738F460
S113219004C0013080E2180720F483E003C081E02A
S11321A001C082E0806F8C8361E070E0CE01049610
S11321B00E94BE0C81113BC0B601C1018E0D9F1D52
S11321C00E94BE0C811133C08091E62A882331F02D
S11321D0EC0CFD1C0C191D0961F609C062E070E0ED
S11321E0CE0101960E94BE0C882391F320C08091F9
S11321F0E62A882311F003E001C002E010E0B801F0
S1132200CE0101960E94D70C811111C0FE01E00F8E
S1132210F11F808181110BC0EFEFFFEFEC0FFD1F69
S1132220E00FF11F8081833C11F480E020C061E065
S113223070E080E090E00E940709A12CC12CD12C11
S1132240760100E010E0980140E050E0BA018FEC24
S11322500E94940D8FEC0E94F00C61E070E080E02D
S113226090E00E940709BA94B11062CF8AEF2496D5
S1132270CDBFDEBFDF91CF911F910F91FF90EF9003
S1132280DF90CF90BF90AF909F908F907F906F9092
S11322905F904F903F902F9008955058BB27AA27E6
S11322A00E9465110C94AF120E94A11238F00E9492
S11322B0A81220F039F49F3F19F426F40C949E12CE
S11322C00EF4E095E7FB0C949812E92F0E94C012DB
S11322D058F3BA17620773078407950720F079F457
S11322E0A6F50C94E2120EF4E0950B2EBA2FA02D55
S11322F00B01B90190010C01CA01A0011124FF27AF
S1132300591B99F0593F50F4503E68F11A16F040A9
S1132310A22F232F342F4427585FF3CF46953795A8
S11323202795A795F0405395C9F77EF41F16BA0B6D
S1132330620B730B840BBAF09150A1F0FF0FBB1F1B
S1132340661F771F881FC2F70EC0BA0F621F731F64
S1132350841F48F4879577956795B795F7959E3FC1
S113236008F0B0CF9395880F08F09927EE0F979552
S1132370879508950E94CE110C94AF120E94A81262
S113238058F00E94A11240F029F45F3F29F00C9408
S1132390981251110C94E3120C949E120E94C012D4
S11323A068F39923B1F3552391F3951B550BBB2780
S11323B0AA2762177307840738F09F5F5F4F220FC5
S11323C0331F441FAA1FA9F335D00E2E3AF0E0E8BC
S11323D032D091505040E695001CCAF72BD0FE2F06
S11323E029D0660F771F881FBB1F2617370748079A
S11323F0AB07B0E809F0BB0B802DBF01FF27935852
S11324005F4F3AF09E3F510578F00C9498120C946B
S1132410E3125F3FE4F3983ED4F38695779567958E
S1132420B795F7959F5FC9F7880F911D9695879586
S113243097F90895E1E0660F771F881FBB1F6217A5
S113244073078407BA0720F0621B730B840BBA0B63
S1132450EE1F88F7E09508950E94C81288F09F57F0
S113246098F0B92F9927B751B0F0E1F0660F771FB4
S1132470881F991F1AF0BA95C9F714C0B13091F0AA
S11324800E94E212B1E008950C94E212672F782FB3
S11324908827B85F39F0B93FCCF38695779567956F
S11324A0B395D9F73EF490958095709561957F4FDB
S11324B08F4F9F4F0895E89409C097FB3EF4909581
S11324C08095709561957F4F8F4F9F4F9923A9F009
S11324D0F92F96E9BB279395F69587957795679598
S11324E0B795F111F8CFFAF4BB0F11F460FF1BC0DC
S11324F06F5F7F4F8F4F9F4F16C0882311F096E96F
S113250011C0772321F09EE8872F762F05C066231C
S113251071F096E8862F70E060E02AF09A95660FD5
S1132520771F881FDAF7880F9695879597F908958E
S113253097F99F6780E870E060E008959FEF80EC72
S1132540089500240A941616170618060906089515
S113255000240A9412161306140605060895092E7B
S11325600394000C11F4882352F0BB0F40F4BF2BEA
S113257011F460FF04C06F5F7F4F8F4F9F4F08952A
S113258057FD9058440F551F59F05F3F71F0479520
S1132590880F97FB991F61F09F3F79F08795089505
S11325A0121613061406551FF2CF4695F1DF08C024
S11325B0161617061806991FF1CF86957105610541
S11325C008940895E894BB2766277727CB0197F9E9
S11325D008950E94FC120C94AF120E94A11238F0CC
S11325E00E94A81220F0952311F00C9498120C94D8
S11325F09E1211240C94E3120E94C01270F3959F52
S1132600C1F3950F50E0551F629FF001729FBB27E5
S1132610F00DB11D639FAA27F00DB11DAA1F649F81
S11326206627B00DA11D661F829F2227B00DA11D34
S1132630621F739FB00DA11D621F839FA00D611DBA
S1132640221F749F3327A00D611D231F849F600DDB
S1132650211D822F762F6A2F11249F5750409AF004
S1132660F1F088234AF0EE0FFF1FBB1F661F771F90
S1132670881F91505040A9F79E3F510580F00C945B
S113268098120C94E3125F3FE4F3983ED4F38695DA
S113269077956795B795F795E7959F5FC1F7FE2BFB
S11326A0880F911D9695879597F90895EE0FFF1F52
S11326B00590F491E02D09940F931F93CF93DF932A
S11326C0E091E92AF091EA2A238121FF1BC08C01C1
S11326D0D0E0C0E0F80181918F016091E92A709106
S11326E0EA2ADB011896ED91FC911997882331F0C1
S11326F00995892B79F3DFEFCFEFECCF8AE00995C9
S1132700892B19F08FEF9FEF02C08D2F9C2FDF9143
S10F2710CF911F910F910895F894FFCF12
S113271C4661696C656420746F20707574207468EC
S113272C652057694669204368697020696E206486
S112273C6F776E6C6F6164206D6F6465210A00A6
S113274BF20407051505BA05F205440672062005C1
S113275B1305FA043D0544054B055B05E20422050C
S113276B62057D05C1060000000000000000E307C0
S113277BCF070000000200000000B90800000000B1
S105278B000147
S9030000FC
